{
  "contractName": "SOS",
  "abi": [
    {
      "inputs": [],
      "payable": false,
      "stateMutability": "nonpayable",
      "type": "constructor"
    },
    {
      "anonymous": false,
      "inputs": [
        {
          "indexed": false,
          "name": "hospital",
          "type": "address"
        },
        {
          "indexed": false,
          "name": "new_availability",
          "type": "uint256"
        }
      ],
      "name": "incrementDone",
      "type": "event"
    },
    {
      "anonymous": false,
      "inputs": [
        {
          "indexed": false,
          "name": "hospital",
          "type": "address"
        },
        {
          "indexed": false,
          "name": "latitude",
          "type": "string"
        },
        {
          "indexed": false,
          "name": "longitude",
          "type": "string"
        },
        {
          "indexed": false,
          "name": "mobileNumber",
          "type": "string"
        }
      ],
      "name": "InformHospital",
      "type": "event"
    },
    {
      "anonymous": false,
      "inputs": [
        {
          "indexed": false,
          "name": "postalAddress",
          "type": "string"
        },
        {
          "indexed": false,
          "name": "mobileNumber",
          "type": "string"
        }
      ],
      "name": "InformPatient",
      "type": "event"
    },
    {
      "constant": false,
      "inputs": [
        {
          "name": "_hospital",
          "type": "address"
        },
        {
          "name": "_capacity",
          "type": "uint256"
        },
        {
          "name": "_availability",
          "type": "uint256"
        },
        {
          "name": "postalAddress",
          "type": "string"
        },
        {
          "name": "mobileNumber",
          "type": "string"
        }
      ],
      "name": "addHospital",
      "outputs": [],
      "payable": false,
      "stateMutability": "nonpayable",
      "type": "function"
    },
    {
      "constant": false,
      "inputs": [],
      "name": "increment",
      "outputs": [],
      "payable": false,
      "stateMutability": "nonpayable",
      "type": "function"
    },
    {
      "constant": false,
      "inputs": [
        {
          "name": "_hospital",
          "type": "address"
        },
        {
          "name": "latitude",
          "type": "string"
        },
        {
          "name": "longitude",
          "type": "string"
        },
        {
          "name": "mobileNumber",
          "type": "string"
        }
      ],
      "name": "decrement",
      "outputs": [
        {
          "name": "",
          "type": "bool"
        }
      ],
      "payable": false,
      "stateMutability": "nonpayable",
      "type": "function"
    }
  ],
  "bytecode": "0x6060604052341561000f57600080fd5b336000806101000a81548173ffffffffffffffffffffffffffffffffffffffff021916908373ffffffffffffffffffffffffffffffffffffffff160217905550610b448061005e6000396000f300606060405260043610610057576000357c0100000000000000000000000000000000000000000000000000000000900463ffffffff1680639fdd1a241461005c578063cd76f30414610176578063d09de08a14610247575b600080fd5b341561006757600080fd5b61015c600480803573ffffffffffffffffffffffffffffffffffffffff1690602001909190803590602001908201803590602001908080601f0160208091040260200160405190810160405280939291908181526020018383808284378201915050505050509190803590602001908201803590602001908080601f0160208091040260200160405190810160405280939291908181526020018383808284378201915050505050509190803590602001908201803590602001908080601f0160208091040260200160405190810160405280939291908181526020018383808284378201915050505050509190505061025c565b604051808215151515815260200191505060405180910390f35b341561018157600080fd5b610245600480803573ffffffffffffffffffffffffffffffffffffffff1690602001909190803590602001909190803590602001909190803590602001908201803590602001908080601f0160208091040260200160405190810160405280939291908181526020018383808284378201915050505050509190803590602001908201803590602001908080601f0160208091040260200160405190810160405280939291908181526020018383808284378201915050505050509190505061072b565b005b341561025257600080fd5b61025a610890565b005b60008060009054906101000a900473ffffffffffffffffffffffffffffffffffffffff1673ffffffffffffffffffffffffffffffffffffffff163373ffffffffffffffffffffffffffffffffffffffff161415156102b957600080fd5b6000600160008773ffffffffffffffffffffffffffffffffffffffff1673ffffffffffffffffffffffffffffffffffffffff168152602001908152602001600020600201541415151561030b57600080fd5b6000600160008773ffffffffffffffffffffffffffffffffffffffff1673ffffffffffffffffffffffffffffffffffffffff16815260200190815260200160002060030154111561071e5760018060008773ffffffffffffffffffffffffffffffffffffffff1673ffffffffffffffffffffffffffffffffffffffff168152602001908152602001600020600301600082825403925050819055507fd97cde655618e0946dac07ffd45e0d8043da8c7d048aedf33aec9e06bd5e4e0a600160008773ffffffffffffffffffffffffffffffffffffffff1673ffffffffffffffffffffffffffffffffffffffff168152602001908152602001600020600001600160008873ffffffffffffffffffffffffffffffffffffffff1673ffffffffffffffffffffffffffffffffffffffff1681526020019081526020016000206001016040518080602001806020018381038352858181546001816001161561010002031660029004815260200191508054600181600116156101000203166002900480156104d85780601f106104ad576101008083540402835291602001916104d8565b820191906000526020600020905b8154815290600101906020018083116104bb57829003601f168201915b505083810382528481815460018160011615610100020316600290048152602001915080546001816001161561010002031660029004801561055b5780601f106105305761010080835404028352916020019161055b565b820191906000526020600020905b81548152906001019060200180831161053e57829003601f168201915b505094505050505060405180910390a17fa18fce5fdaf2afd827552ea1f88a58763500d22eeb15b8d212fb4be5c73c3ee785858585604051808573ffffffffffffffffffffffffffffffffffffffff1673ffffffffffffffffffffffffffffffffffffffff168152602001806020018060200180602001848103845287818151815260200191508051906020019080838360005b8381101561060a5780820151818401526020810190506105ef565b50505050905090810190601f1680156106375780820380516001836020036101000a031916815260200191505b50848103835286818151815260200191508051906020019080838360005b83811015610670578082015181840152602081019050610655565b50505050905090810190601f16801561069d5780820380516001836020036101000a031916815260200191505b50848103825285818151815260200191508051906020019080838360005b838110156106d65780820151818401526020810190506106bb565b50505050905090810190601f1680156107035780820380516001836020036101000a031916815260200191505b5097505050505050505060405180910390a160019050610723565b600090505b949350505050565b6000809054906101000a900473ffffffffffffffffffffffffffffffffffffffff1673ffffffffffffffffffffffffffffffffffffffff163373ffffffffffffffffffffffffffffffffffffffff1614151561078657600080fd5b6000600160008773ffffffffffffffffffffffffffffffffffffffff1673ffffffffffffffffffffffffffffffffffffffff168152602001908152602001600020600201541415156107d757600080fd5b60806040519081016040528083815260200182815260200185815260200184815250600160008773ffffffffffffffffffffffffffffffffffffffff1673ffffffffffffffffffffffffffffffffffffffff1681526020019081526020016000206000820151816000019080519060200190610854929190610a73565b506020820151816001019080519060200190610871929190610a73565b5060408201518160020155606082015181600301559050505050505050565b6000600160003373ffffffffffffffffffffffffffffffffffffffff1673ffffffffffffffffffffffffffffffffffffffff16815260200190815260200160002060020154141515156108e257600080fd5b600160003373ffffffffffffffffffffffffffffffffffffffff1673ffffffffffffffffffffffffffffffffffffffff16815260200190815260200160002060020154600160003373ffffffffffffffffffffffffffffffffffffffff1673ffffffffffffffffffffffffffffffffffffffff1681526020019081526020016000206003015410151561097457600080fd5b60018060003373ffffffffffffffffffffffffffffffffffffffff1673ffffffffffffffffffffffffffffffffffffffff168152602001908152602001600020600301600082825401925050819055507fa044f05aada4f66a431da0f12120b2f54f26b7abaaf1cf5ed86ea1a19c4b3c2733600160003373ffffffffffffffffffffffffffffffffffffffff1673ffffffffffffffffffffffffffffffffffffffff16815260200190815260200160002060030154604051808373ffffffffffffffffffffffffffffffffffffffff1673ffffffffffffffffffffffffffffffffffffffff1681526020018281526020019250505060405180910390a1565b828054600181600116156101000203166002900490600052602060002090601f016020900481019282601f10610ab457805160ff1916838001178555610ae2565b82800160010185558215610ae2579182015b82811115610ae1578251825591602001919060010190610ac6565b5b509050610aef9190610af3565b5090565b610b1591905b80821115610b11576000816000905550600101610af9565b5090565b905600a165627a7a7230582058408041291949e8c5530ca17b32778551293cc03b13ddac1317d95911f740c90029",
  "source": "pragma solidity ^0.4.11;\n\ncontract SOS{\n    // This is the Govt. who manages the hospitals\n    address private creator;\n\n    // address in the mappigs is of the hospital\n    mapping(address => Hospital) hospitalDetail;\n\n    //triggered when the availablility of hospitalchanges\n    event incrementDone(address hospital,uint new_availability);\n\n    // triggered when a patient clicks sos and he needs a bed\n    event InformHospital(address hospital, string latitude, string longitude, string mobileNumber);\n    event InformPatient(string postalAddress, string mobileNumber);\n\n    // This Object stores the Information about the hospital\n    struct Hospital{\n        string postalAddress;\n        string mobileNumber;\n        uint hospitalCapacity;\n        uint hospitalAvailability;\n    }\n\n    function SOS() public {\n    creator = msg.sender;\n  }\n    function  addHospital(address _hospital, uint _capacity, uint _availability, string postalAddress, string mobileNumber) public{\n    require(msg.sender == creator);\n    require(hospitalDetail[_hospital].hospitalCapacity ==0);\n    hospitalDetail[_hospital] = Hospital(postalAddress, mobileNumber, _capacity, _availability);\n\n  }\n    function increment() public{\n\n      // does hospital exist in the map\n      require(hospitalDetail[msg.sender].hospitalCapacity != 0);\n      require(hospitalDetail[msg.sender].hospitalAvailability < hospitalDetail[msg.sender].hospitalCapacity);\n\n      // to make sure that number of available beds does not exceed capacity\n      hospitalDetail[msg.sender].hospitalAvailability +=1;\n      incrementDone(msg.sender, hospitalDetail[msg.sender].hospitalAvailability);\n\n  }\n    function decrement(address _hospital, string latitude, string longitude, string mobileNumber) public returns (bool){\n    // to check the decrement is done by the creator only\n      require(msg.sender == creator);\n\n    // to check that the hospital is Authorised\n      require(hospitalDetail[_hospital].hospitalCapacity != 0);\n\n    //Wheather Hospital has available beds or not\n      if(hospitalDetail[_hospital].hospitalAvailability > 0){\n          // Decreaing the number of available beds\n          hospitalDetail[_hospital].hospitalAvailability -= 1;\n\n          // Tell the patient where he has been alloted a bed\n          InformPatient(hospitalDetail[_hospital].postalAddress, hospitalDetail[_hospital].mobileNumber);\n\n          // Tell the hospital that he needs to send Ambulance for a patient\n          InformHospital(_hospital, latitude, longitude, mobileNumber);\n\n          return true;\n      }else{\n          return false;\n      }\n\n  }\n    \n\n}",
  "sourcePath": "/home/arvind/Documents/MCH-Hack/Hospitals/contracts/Migrations.sol",
  "compiler": {
    "name": "solc",
    "version": "0.4.19+commit.c4cbbb05.Emscripten.clang"
  },
  "schemaVersion": "1.0.1",
  "updatedAt": "2018-02-03T09:37:12.311Z"
}